{
  "contractName": "BEP20FlashLender",
  "abi": [
    {
      "anonymous": false,
      "inputs": [
        {
          "indexed": true,
          "internalType": "address",
          "name": "previousOwner",
          "type": "address"
        },
        {
          "indexed": true,
          "internalType": "address",
          "name": "newOwner",
          "type": "address"
        }
      ],
      "name": "OwnershipTransferred",
      "type": "event"
    },
    {
      "inputs": [],
      "name": "owner",
      "outputs": [
        {
          "internalType": "address",
          "name": "",
          "type": "address"
        }
      ],
      "stateMutability": "view",
      "type": "function"
    },
    {
      "inputs": [],
      "name": "renounceOwnership",
      "outputs": [],
      "stateMutability": "nonpayable",
      "type": "function"
    },
    {
      "inputs": [
        {
          "internalType": "address",
          "name": "newOwner",
          "type": "address"
        }
      ],
      "name": "transferOwnership",
      "outputs": [],
      "stateMutability": "nonpayable",
      "type": "function"
    },
    {
      "inputs": [
        {
          "internalType": "address",
          "name": "token",
          "type": "address"
        },
        {
          "internalType": "uint256",
          "name": "amount",
          "type": "uint256"
        },
        {
          "internalType": "string",
          "name": "token1",
          "type": "string"
        },
        {
          "internalType": "string",
          "name": "token2",
          "type": "string"
        },
        {
          "internalType": "string",
          "name": "token3",
          "type": "string"
        }
      ],
      "name": "BEP20FlashLoan",
      "outputs": [],
      "stateMutability": "nonpayable",
      "type": "function"
    },
    {
      "inputs": [],
      "name": "tokenBorrowerFee",
      "outputs": [
        {
          "internalType": "uint256",
          "name": "",
          "type": "uint256"
        }
      ],
      "stateMutability": "view",
      "type": "function"
    }
  ],
  "bytecode": "0x608060405266038d7ea4c6800060025534801561001b57600080fd5b50600061002c6100d660201b60201c565b9050806000806101000a81548173ffffffffffffffffffffffffffffffffffffffff021916908373ffffffffffffffffffffffffffffffffffffffff1602179055508073ffffffffffffffffffffffffffffffffffffffff16600073ffffffffffffffffffffffffffffffffffffffff167f8be0079c531659141344cd1fd0a4f28419497f9722a3daafe3b4186f6b6457e060405160405180910390a350600180819055506100de565b600033905090565b610ebc806100ed6000396000f3fe608060405234801561001057600080fd5b50600436106100575760003560e01c806355dc67881461005c578063715018a61461026f5780638da5cb5b14610279578063c6686bd9146102ad578063f2fde38b146102cb575b600080fd5b61026d600480360360a081101561007257600080fd5b81019080803573ffffffffffffffffffffffffffffffffffffffff16906020019092919080359060200190929190803590602001906401000000008111156100b957600080fd5b8201836020820111156100cb57600080fd5b803590602001918460018302840111640100000000831117156100ed57600080fd5b91908080601f016020809104026020016040519081016040528093929190818152602001838380828437600081840152601f19601f8201169050808301925050505050505091929192908035906020019064010000000081111561015057600080fd5b82018360208201111561016257600080fd5b8035906020019184600183028401116401000000008311171561018457600080fd5b91908080601f016020809104026020016040519081016040528093929190818152602001838380828437600081840152601f19601f820116905080830192505050505050509192919290803590602001906401000000008111156101e757600080fd5b8201836020820111156101f957600080fd5b8035906020019184600183028401116401000000008311171561021b57600080fd5b91908080601f016020809104026020016040519081016040528093929190818152602001838380828437600081840152601f19601f82011690508083019250505050505050919291929050505061030f565b005b610277610855565b005b6102816109db565b604051808273ffffffffffffffffffffffffffffffffffffffff16815260200191505060405180910390f35b6102b5610a04565b6040518082815260200191505060405180910390f35b61030d600480360360208110156102e157600080fd5b81019080803573ffffffffffffffffffffffffffffffffffffffff169060200190929190505050610a0e565b005b600360008673ffffffffffffffffffffffffffffffffffffffff1673ffffffffffffffffffffffffffffffffffffffff16815260200190815260200160002060009054906101000a900460ff166103ce576040517f08c379a00000000000000000000000000000000000000000000000000000000081526004018080602001828103825260158152602001807f746f6b656e206e6f742077686974656c6973746564000000000000000000000081525060200191505060405180910390fd5b6000610419670de0b6b3a764000061040b6103fc600254670de0b6b3a7640000610c1990919063ffffffff16565b88610ca190919063ffffffff16565b610d2790919063ffffffff16565b90508573ffffffffffffffffffffffffffffffffffffffff1663a9059cbb33876040518363ffffffff1660e01b8152600401808373ffffffffffffffffffffffffffffffffffffffff16815260200182815260200192505050602060405180830381600087803b15801561048c57600080fd5b505af11580156104a0573d6000803e3d6000fd5b505050506040513d60208110156104b657600080fd5b8101908080519060200190929190505050610539576040517f08c379a000000000000000000000000000000000000000000000000000000000815260040180806020018281038252600d8152602001807f626f72726f77206661696c65640000000000000000000000000000000000000081525060200191505060405180910390fd5b3373ffffffffffffffffffffffffffffffffffffffff1663524bc3608787848888886040518763ffffffff1660e01b8152600401808773ffffffffffffffffffffffffffffffffffffffff168152602001868152602001858152602001806020018060200180602001848103845287818151815260200191508051906020019080838360005b838110156105da5780820151818401526020810190506105bf565b50505050905090810190601f1680156106075780820380516001836020036101000a031916815260200191505b50848103835286818151815260200191508051906020019080838360005b83811015610640578082015181840152602081019050610625565b50505050905090810190601f16801561066d5780820380516001836020036101000a031916815260200191505b50848103825285818151815260200191508051906020019080838360005b838110156106a657808201518184015260208101905061068b565b50505050905090810190601f1680156106d35780820380516001836020036101000a031916815260200191505b509950505050505050505050600060405180830381600087803b1580156106f957600080fd5b505af115801561070d573d6000803e3d6000fd5b505050508573ffffffffffffffffffffffffffffffffffffffff166323b872dd3330846040518463ffffffff1660e01b8152600401808473ffffffffffffffffffffffffffffffffffffffff1681526020018373ffffffffffffffffffffffffffffffffffffffff1681526020018281526020019350505050602060405180830381600087803b1580156107a057600080fd5b505af11580156107b4573d6000803e3d6000fd5b505050506040513d60208110156107ca57600080fd5b810190808051906020019092919050505061084d576040517f08c379a00000000000000000000000000000000000000000000000000000000081526004018080602001828103825260108152602001807f72657061796d656e74206661696c65640000000000000000000000000000000081525060200191505060405180910390fd5b505050505050565b61085d610d71565b73ffffffffffffffffffffffffffffffffffffffff1660008054906101000a900473ffffffffffffffffffffffffffffffffffffffff1673ffffffffffffffffffffffffffffffffffffffff161461091d576040517f08c379a00000000000000000000000000000000000000000000000000000000081526004018080602001828103825260208152602001807f4f776e61626c653a2063616c6c6572206973206e6f7420746865206f776e657281525060200191505060405180910390fd5b600073ffffffffffffffffffffffffffffffffffffffff1660008054906101000a900473ffffffffffffffffffffffffffffffffffffffff1673ffffffffffffffffffffffffffffffffffffffff167f8be0079c531659141344cd1fd0a4f28419497f9722a3daafe3b4186f6b6457e060405160405180910390a360008060006101000a81548173ffffffffffffffffffffffffffffffffffffffff021916908373ffffffffffffffffffffffffffffffffffffffff160217905550565b60008060009054906101000a900473ffffffffffffffffffffffffffffffffffffffff16905090565b6000600254905090565b610a16610d71565b73ffffffffffffffffffffffffffffffffffffffff1660008054906101000a900473ffffffffffffffffffffffffffffffffffffffff1673ffffffffffffffffffffffffffffffffffffffff1614610ad6576040517f08c379a00000000000000000000000000000000000000000000000000000000081526004018080602001828103825260208152602001807f4f776e61626c653a2063616c6c6572206973206e6f7420746865206f776e657281525060200191505060405180910390fd5b600073ffffffffffffffffffffffffffffffffffffffff168173ffffffffffffffffffffffffffffffffffffffff161415610b5c576040517f08c379a0000000000000000000000000000000000000000000000000000000008152600401808060200182810382526026815260200180610e406026913960400191505060405180910390fd5b8073ffffffffffffffffffffffffffffffffffffffff1660008054906101000a900473ffffffffffffffffffffffffffffffffffffffff1673ffffffffffffffffffffffffffffffffffffffff167f8be0079c531659141344cd1fd0a4f28419497f9722a3daafe3b4186f6b6457e060405160405180910390a3806000806101000a81548173ffffffffffffffffffffffffffffffffffffffff021916908373ffffffffffffffffffffffffffffffffffffffff16021790555050565b600080828401905083811015610c97576040517f08c379a000000000000000000000000000000000000000000000000000000000815260040180806020018281038252601b8152602001807f536166654d6174683a206164646974696f6e206f766572666c6f77000000000081525060200191505060405180910390fd5b8091505092915050565b600080831415610cb45760009050610d21565b6000828402905082848281610cc557fe5b0414610d1c576040517f08c379a0000000000000000000000000000000000000000000000000000000008152600401808060200182810382526021815260200180610e666021913960400191505060405180910390fd5b809150505b92915050565b6000610d6983836040518060400160405280601a81526020017f536166654d6174683a206469766973696f6e206279207a65726f000000000000815250610d79565b905092915050565b600033905090565b60008083118290610e25576040517f08c379a00000000000000000000000000000000000000000000000000000000081526004018080602001828103825283818151815260200191508051906020019080838360005b83811015610dea578082015181840152602081019050610dcf565b50505050905090810190601f168015610e175780820380516001836020036101000a031916815260200191505b509250505060405180910390fd5b506000838581610e3157fe5b04905080915050939250505056fe4f776e61626c653a206e6577206f776e657220697320746865207a65726f2061646472657373536166654d6174683a206d756c7469706c69636174696f6e206f766572666c6f77a2646970667358221220e55e9aaa982214f7f48ee5d96ee05f41d8d8c90b87faec17c8a10fac5d81ec3064736f6c634300060c0033",
  "source": "// SPDX-License-Identifier: MIT\npragma solidity ^0.6.8;\n\nimport \"../contracts/IBEP20FlashBorrower.sol\";\nimport \"../contracts/SafeMath.sol\";\nimport \"@openzeppelin/contracts/access/Ownable.sol\";\nimport \"@openzeppelin/contracts/utils/ReentrancyGuard.sol\";\nimport \"@openzeppelin/contracts/token/ERC20/IERC20.sol\";\n\n\n\n// @notice Any contract that inherits this contract becomes a flash lender of any ERC20 tokens that it has whitelisted.\ncontract BEP20FlashLender is Ownable, ReentrancyGuard{\n    using SafeMath for uint256;\n\n    uint256 internal _tokenBorrowFee = 0.001e18; // e.g.: 0.003e18 means 0.3% fee (at 0.1%)\n    uint256 constant internal ONE = 1e18;\n\n    // only whitelist tokens whose `transferFrom` function returns false (or reverts) on failure\n    mapping(address => bool) internal _whitelist;\n\n    // @notice Borrow tokens via a flash loan\n    function BEP20FlashLoan(address token, uint256 amount,string memory token1, string memory token2, string memory token3) external {\n        // token must be whitelisted by Lender\n        require(_whitelist[token], \"token not whitelisted\");\n\n        // record debt\n        uint256 debt = amount.mul(ONE.add(_tokenBorrowFee)).div(ONE);\n\n        // send borrower the tokens\n        require(IERC20(token).transfer(msg.sender, amount), \"borrow failed\");\n\n        // hand over control to borrower\n        IBEP20FlashBorrower(msg.sender).executeOnBEP20FlashLoan(token, amount, debt, token1, token2, token3);\n\n        // repay the debt\n        require(IERC20(token).transferFrom(msg.sender, address(this), debt), \"repayment failed\");\n    }\n\n    function tokenBorrowerFee() public view returns (uint256) {\n        return _tokenBorrowFee;\n    }\n}",
  "sourcePath": "/Users/VijayL/Documents/Blockchain/MyProjects/Encode_Club_hackathon/BSC/contracts/BEP20FlashLender.sol",
  "compiler": {
    "name": "solc",
    "version": "0.6.12+commit.27d51765.Emscripten.clang"
  },
  "schemaVersion": "3.0.23",
  "updatedAt": "2021-01-29T17:15:55.073Z",
  "devdoc": {
    "kind": "dev",
    "methods": {
      "owner()": {
        "details": "Returns the address of the current owner."
      },
      "renounceOwnership()": {
        "details": "Leaves the contract without owner. It will not be possible to call `onlyOwner` functions anymore. Can only be called by the current owner. NOTE: Renouncing ownership will leave the contract without an owner, thereby removing any functionality that is only available to the owner."
      },
      "transferOwnership(address)": {
        "details": "Transfers ownership of the contract to a new account (`newOwner`). Can only be called by the current owner."
      }
    },
    "version": 1
  },
  "userdoc": {
    "kind": "user",
    "methods": {},
    "version": 1
  }
}