{
  "contractName": "BEP20FlashBorrower",
  "abi": [
    {
      "anonymous": false,
      "inputs": [
        {
          "indexed": true,
          "internalType": "address",
          "name": "previousOwner",
          "type": "address"
        },
        {
          "indexed": true,
          "internalType": "address",
          "name": "newOwner",
          "type": "address"
        }
      ],
      "name": "OwnershipTransferred",
      "type": "event"
    },
    {
      "inputs": [],
      "name": "BAND_ORACLE",
      "outputs": [
        {
          "internalType": "contract priceOracle",
          "name": "",
          "type": "address"
        }
      ],
      "stateMutability": "view",
      "type": "function"
    },
    {
      "inputs": [],
      "name": "bep20FlashLender",
      "outputs": [
        {
          "internalType": "contract BEP20FlashLender",
          "name": "",
          "type": "address"
        }
      ],
      "stateMutability": "view",
      "type": "function"
    },
    {
      "inputs": [],
      "name": "owner",
      "outputs": [
        {
          "internalType": "address",
          "name": "",
          "type": "address"
        }
      ],
      "stateMutability": "view",
      "type": "function"
    },
    {
      "inputs": [],
      "name": "renounceOwnership",
      "outputs": [],
      "stateMutability": "nonpayable",
      "type": "function"
    },
    {
      "inputs": [
        {
          "internalType": "address",
          "name": "newOwner",
          "type": "address"
        }
      ],
      "name": "transferOwnership",
      "outputs": [],
      "stateMutability": "nonpayable",
      "type": "function"
    },
    {
      "inputs": [
        {
          "internalType": "address",
          "name": "token",
          "type": "address"
        },
        {
          "internalType": "uint256",
          "name": "amount",
          "type": "uint256"
        },
        {
          "internalType": "string",
          "name": "token1",
          "type": "string"
        },
        {
          "internalType": "string",
          "name": "token2",
          "type": "string"
        },
        {
          "internalType": "string",
          "name": "token3",
          "type": "string"
        }
      ],
      "name": "borrow",
      "outputs": [],
      "stateMutability": "nonpayable",
      "type": "function"
    },
    {
      "inputs": [
        {
          "internalType": "address",
          "name": "token",
          "type": "address"
        },
        {
          "internalType": "uint256",
          "name": "amount",
          "type": "uint256"
        },
        {
          "internalType": "uint256",
          "name": "debt",
          "type": "uint256"
        },
        {
          "internalType": "string",
          "name": "token1",
          "type": "string"
        },
        {
          "internalType": "string",
          "name": "token2",
          "type": "string"
        },
        {
          "internalType": "string",
          "name": "token3",
          "type": "string"
        }
      ],
      "name": "executeOnBEP20FlashLoan",
      "outputs": [],
      "stateMutability": "nonpayable",
      "type": "function"
    }
  ],
  "bytecode": "0x608060405234801561001057600080fd5b5060006100216100c460201b60201c565b9050806000806101000a81548173ffffffffffffffffffffffffffffffffffffffff021916908373ffffffffffffffffffffffffffffffffffffffff1602179055508073ffffffffffffffffffffffffffffffffffffffff16600073ffffffffffffffffffffffffffffffffffffffff167f8be0079c531659141344cd1fd0a4f28419497f9722a3daafe3b4186f6b6457e060405160405180910390a3506100cc565b600033905090565b61126f806100db6000396000f3fe608060405234801561001057600080fd5b506004361061007d5760003560e01c806361e62bac1161005b57806361e62bac146100da578063715018a6146100f65780638da5cb5b14610100578063f2fde38b1461011e5761007d565b8063364e35831461008257806336962878146100a0578063524bc360146100be575b600080fd5b61008a61013a565b6040516100979190610f8d565b60405180910390f35b6100a8610152565b6040516100b59190610fa8565b60405180910390f35b6100d860048036038101906100d39190610bfd565b61016a565b005b6100f460048036038101906100ef9190610b3e565b6104e9565b005b6100fe61060c565b005b61010861075f565b6040516101159190610ee1565b60405180910390f35b61013860048036038101906101339190610b15565b610788565b005b73cccd586c777ba2817f75e04c4e7305cc77c710f981565b73491118b72ef35046c387ec240ebad4807f94393281565b73cccd586c777ba2817f75e04c4e7305cc77c710f973ffffffffffffffffffffffffffffffffffffffff163373ffffffffffffffffffffffffffffffffffffffff16146101ec576040517f08c379a00000000000000000000000000000000000000000000000000000000081526004016101e39061103c565b60405180910390fd5b6104396102a8670de0b6b3a764000073491118b72ef35046c387ec240ebad4807f94393273ffffffffffffffffffffffffffffffffffffffff16633d0f34da85886040518363ffffffff1660e01b815260040161024a929190610fe5565b60206040518083038186803b15801561026257600080fd5b505afa158015610276573d6000803e3d6000fd5b505050506040513d601f19601f8201168201806040525081019061029a9190610cf7565b61094a90919063ffffffff16565b61042b610364670de0b6b3a764000073491118b72ef35046c387ec240ebad4807f94393273ffffffffffffffffffffffffffffffffffffffff16633d0f34da88886040518363ffffffff1660e01b8152600401610306929190610fe5565b60206040518083038186803b15801561031e57600080fd5b505afa158015610332573d6000803e3d6000fd5b505050506040513d601f19601f820116820180604052508101906103569190610cf7565b61094a90919063ffffffff16565b61041d670de0b6b3a764000073491118b72ef35046c387ec240ebad4807f94393273ffffffffffffffffffffffffffffffffffffffff16633d0f34da8a8a6040518363ffffffff1660e01b81526004016103bf929190610fe5565b60206040518083038186803b1580156103d757600080fd5b505afa1580156103eb573d6000803e3d6000fd5b505050506040513d601f19601f8201168201806040525081019061040f9190610cf7565b61094a90919063ffffffff16565b61099490919063ffffffff16565b61099490919063ffffffff16565b6001819055508573ffffffffffffffffffffffffffffffffffffffff1663095ea7b373cccd586c777ba2817f75e04c4e7305cc77c710f9866040518363ffffffff1660e01b815260040161048e929190610efc565b602060405180830381600087803b1580156104a857600080fd5b505af11580156104bc573d6000803e3d6000fd5b505050506040513d601f19601f820116820180604052508101906104e09190610cce565b50505050505050565b6104f1610a04565b73ffffffffffffffffffffffffffffffffffffffff1660008054906101000a900473ffffffffffffffffffffffffffffffffffffffff1673ffffffffffffffffffffffffffffffffffffffff161461057e576040517f08c379a00000000000000000000000000000000000000000000000000000000081526004016105759061107c565b60405180910390fd5b73cccd586c777ba2817f75e04c4e7305cc77c710f973ffffffffffffffffffffffffffffffffffffffff166355dc678886868686866040518663ffffffff1660e01b81526004016105d3959493929190610f25565b600060405180830381600087803b1580156105ed57600080fd5b505af1158015610601573d6000803e3d6000fd5b505050505050505050565b610614610a04565b73ffffffffffffffffffffffffffffffffffffffff1660008054906101000a900473ffffffffffffffffffffffffffffffffffffffff1673ffffffffffffffffffffffffffffffffffffffff16146106a1576040517f08c379a00000000000000000000000000000000000000000000000000000000081526004016106989061107c565b60405180910390fd5b600073ffffffffffffffffffffffffffffffffffffffff1660008054906101000a900473ffffffffffffffffffffffffffffffffffffffff1673ffffffffffffffffffffffffffffffffffffffff167f8be0079c531659141344cd1fd0a4f28419497f9722a3daafe3b4186f6b6457e060405160405180910390a360008060006101000a81548173ffffffffffffffffffffffffffffffffffffffff021916908373ffffffffffffffffffffffffffffffffffffffff160217905550565b60008060009054906101000a900473ffffffffffffffffffffffffffffffffffffffff16905090565b610790610a04565b73ffffffffffffffffffffffffffffffffffffffff1660008054906101000a900473ffffffffffffffffffffffffffffffffffffffff1673ffffffffffffffffffffffffffffffffffffffff161461081d576040517f08c379a00000000000000000000000000000000000000000000000000000000081526004016108149061107c565b60405180910390fd5b600073ffffffffffffffffffffffffffffffffffffffff168173ffffffffffffffffffffffffffffffffffffffff16141561088d576040517f08c379a00000000000000000000000000000000000000000000000000000000081526004016108849061101c565b60405180910390fd5b8073ffffffffffffffffffffffffffffffffffffffff1660008054906101000a900473ffffffffffffffffffffffffffffffffffffffff1673ffffffffffffffffffffffffffffffffffffffff167f8be0079c531659141344cd1fd0a4f28419497f9722a3daafe3b4186f6b6457e060405160405180910390a3806000806101000a81548173ffffffffffffffffffffffffffffffffffffffff021916908373ffffffffffffffffffffffffffffffffffffffff16021790555050565b600061098c83836040518060400160405280601a81526020017f536166654d6174683a206469766973696f6e206279207a65726f000000000000815250610a0c565b905092915050565b6000808314156109a757600090506109fe565b60008284029050828482816109b857fe5b04146109f9576040517f08c379a00000000000000000000000000000000000000000000000000000000081526004016109f09061105c565b60405180910390fd5b809150505b92915050565b600033905090565b60008083118290610a53576040517f08c379a0000000000000000000000000000000000000000000000000000000008152600401610a4a9190610fc3565b60405180910390fd5b506000838581610a5f57fe5b049050809150509392505050565b600081359050610a7c816111f4565b92915050565b600081519050610a918161120b565b92915050565b600082601f830112610aa857600080fd5b8135610abb610ab6826110c9565b61109c565b91508082526020830160208301858383011115610ad757600080fd5b610ae28382846111a1565b50505092915050565b600081359050610afa81611222565b92915050565b600081519050610b0f81611222565b92915050565b600060208284031215610b2757600080fd5b6000610b3584828501610a6d565b91505092915050565b600080600080600060a08688031215610b5657600080fd5b6000610b6488828901610a6d565b9550506020610b7588828901610aeb565b945050604086013567ffffffffffffffff811115610b9257600080fd5b610b9e88828901610a97565b935050606086013567ffffffffffffffff811115610bbb57600080fd5b610bc788828901610a97565b925050608086013567ffffffffffffffff811115610be457600080fd5b610bf088828901610a97565b9150509295509295909350565b60008060008060008060c08789031215610c1657600080fd5b6000610c2489828a01610a6d565b9650506020610c3589828a01610aeb565b9550506040610c4689828a01610aeb565b945050606087013567ffffffffffffffff811115610c6357600080fd5b610c6f89828a01610a97565b935050608087013567ffffffffffffffff811115610c8c57600080fd5b610c9889828a01610a97565b92505060a087013567ffffffffffffffff811115610cb557600080fd5b610cc189828a01610a97565b9150509295509295509295565b600060208284031215610ce057600080fd5b6000610cee84828501610a82565b91505092915050565b600060208284031215610d0957600080fd5b6000610d1784828501610b00565b91505092915050565b610d2981611111565b82525050565b610d3881611159565b82525050565b610d478161117d565b82525050565b6000610d58826110f5565b610d628185611100565b9350610d728185602086016111b0565b610d7b816111e3565b840191505092915050565b6000610d93602683611100565b91507f4f776e61626c653a206e6577206f776e657220697320746865207a65726f206160008301527f64647265737300000000000000000000000000000000000000000000000000006020830152604082019050919050565b6000610df9602083611100565b91507f6f6e6c79206c656e64657220636f6e74726163742063616e20657865637574656000830152602082019050919050565b6000610e39602183611100565b91507f536166654d6174683a206d756c7469706c69636174696f6e206f766572666c6f60008301527f77000000000000000000000000000000000000000000000000000000000000006020830152604082019050919050565b6000610e9f602083611100565b91507f4f776e61626c653a2063616c6c6572206973206e6f7420746865206f776e65726000830152602082019050919050565b610edb8161114f565b82525050565b6000602082019050610ef66000830184610d20565b92915050565b6000604082019050610f116000830185610d20565b610f1e6020830184610ed2565b9392505050565b600060a082019050610f3a6000830188610d20565b610f476020830187610ed2565b8181036040830152610f598186610d4d565b90508181036060830152610f6d8185610d4d565b90508181036080830152610f818184610d4d565b90509695505050505050565b6000602082019050610fa26000830184610d2f565b92915050565b6000602082019050610fbd6000830184610d3e565b92915050565b60006020820190508181036000830152610fdd8184610d4d565b905092915050565b60006040820190508181036000830152610fff8185610d4d565b905081810360208301526110138184610d4d565b90509392505050565b6000602082019050818103600083015261103581610d86565b9050919050565b6000602082019050818103600083015261105581610dec565b9050919050565b6000602082019050818103600083015261107581610e2c565b9050919050565b6000602082019050818103600083015261109581610e92565b9050919050565b6000604051905081810181811067ffffffffffffffff821117156110bf57600080fd5b8060405250919050565b600067ffffffffffffffff8211156110e057600080fd5b601f19601f8301169050602081019050919050565b600081519050919050565b600082825260208201905092915050565b600061111c8261112f565b9050919050565b60008115159050919050565b600073ffffffffffffffffffffffffffffffffffffffff82169050919050565b6000819050919050565b60006111648261116b565b9050919050565b60006111768261112f565b9050919050565b60006111888261118f565b9050919050565b600061119a8261112f565b9050919050565b82818337600083830152505050565b60005b838110156111ce5780820151818401526020810190506111b3565b838111156111dd576000848401525b50505050565b6000601f19601f8301169050919050565b6111fd81611111565b811461120857600080fd5b50565b61121481611123565b811461121f57600080fd5b50565b61122b8161114f565b811461123657600080fd5b5056fea26469706673582212206f7bed7eeae78fc74a03dc467e7aa44c3a922d32a2ea2e8a70da5673a0fac70b64736f6c634300060c0033",
  "source": "// SPDX-License-Identifier: MIT\npragma solidity ^0.6.8;\npragma experimental ABIEncoderV2;\n\nimport \"./BEP20FlashLender.sol\";\nimport \"./priceOracle.sol\";\nimport \"../contracts/SafeMath.sol\";\nimport \"@openzeppelin/contracts/access/Ownable.sol\";\nimport \"@openzeppelin/contracts/token/ERC20/IERC20.sol\";\n\n\n// @notice Used by borrower to flash-borrow ERC20 tokens from ERC20FlashLender\n// @dev Example contract. Do not use. Has not been audited.\ncontract BEP20FlashBorrower is Ownable {\n    using SafeMath for uint256;\n    uint256 arbVal;\n    //set the oracle address to the deployed Band oracle contract address\n    priceOracle public constant BAND_ORACLE = priceOracle(address(0x491118B72ef35046c387ec240EBad4807f943932));\n    // set the Lender contract address to a trusted ERC20FlashLender\n    BEP20FlashLender public constant bep20FlashLender = BEP20FlashLender(address(0xCCcd586C777BA2817F75e04c4e7305cc77C710F9));\n    uint256 constant internal ONE = 1e18;\n\n    \n    // @notice Borrow any ERC20 token that the ERC20FlashLender holds\n    function borrow(address token, uint256 amount,string memory token1, string memory token2, string memory token3) public onlyOwner {    \n       bep20FlashLender.BEP20FlashLoan(token, amount, token1, token2, token3);\n    }\n\n\n    // this is called by ERC20FlashLender after borrower has received the tokens\n    // every ERC20FlashBorrower must implement an `executeOnERC20FlashLoan()` function.\n    function executeOnBEP20FlashLoan(address token, uint256 amount, uint256 debt,string memory token1, string memory token2, string memory token3) external {\n        require(msg.sender == address(bep20FlashLender), \"only lender contract can execute\");\n\n        //... do whatever you want with the tokens to generate profit\n        //assuming BTC as the entry point *BAND_ORACLE.getPrice(\"ETH\",\"SXP\")*BAND_ORACLE.getPrice(\"SXP\",\"BTC\")\n     \n        arbVal = BAND_ORACLE.getPrice(token1,token2).div(ONE).mul(BAND_ORACLE.getPrice(token2,token3).div(ONE)).mul(BAND_ORACLE.getPrice(token3,token1).div(ONE));\n       \n        //since we are on a testnet with no liquidity the liquidity from lender is used for test purposes\n        //frontend will show a demo of the arbitrage value\n        \n        \n        // authorize loan repayment\n        IERC20(token).approve(address(bep20FlashLender), debt);\n    }\n}\n",
  "sourcePath": "/Users/VijayL/Documents/Blockchain/MyProjects/Encode_Club_hackathon/BSC/contracts/BEP20FlashBorrower.sol",
  "compiler": {
    "name": "solc",
    "version": "0.6.12+commit.27d51765.Emscripten.clang"
  },
  "schemaVersion": "3.0.23",
  "updatedAt": "2021-01-29T18:10:51.151Z",
  "devdoc": {
    "kind": "dev",
    "methods": {
      "owner()": {
        "details": "Returns the address of the current owner."
      },
      "renounceOwnership()": {
        "details": "Leaves the contract without owner. It will not be possible to call `onlyOwner` functions anymore. Can only be called by the current owner. NOTE: Renouncing ownership will leave the contract without an owner, thereby removing any functionality that is only available to the owner."
      },
      "transferOwnership(address)": {
        "details": "Transfers ownership of the contract to a new account (`newOwner`). Can only be called by the current owner."
      }
    },
    "version": 1
  },
  "userdoc": {
    "kind": "user",
    "methods": {},
    "version": 1
  }
}