{
  "contractName": "priceOracle",
  "abi": [
    {
      "inputs": [
        {
          "internalType": "contract IStdReference",
          "name": "_ref",
          "type": "address"
        }
      ],
      "stateMutability": "nonpayable",
      "type": "constructor"
    },
    {
      "inputs": [],
      "name": "price",
      "outputs": [
        {
          "internalType": "uint256",
          "name": "",
          "type": "uint256"
        }
      ],
      "stateMutability": "view",
      "type": "function",
      "constant": true
    },
    {
      "inputs": [
        {
          "internalType": "string",
          "name": "token1",
          "type": "string"
        },
        {
          "internalType": "string",
          "name": "token2",
          "type": "string"
        }
      ],
      "name": "getPrice",
      "outputs": [
        {
          "internalType": "uint256",
          "name": "",
          "type": "uint256"
        }
      ],
      "stateMutability": "view",
      "type": "function",
      "constant": true
    }
  ],
  "bytecode": "0x608060405234801561001057600080fd5b506040516105ac3803806105ac8339818101604052810190610032919061008d565b806000806101000a81548173ffffffffffffffffffffffffffffffffffffffff021916908373ffffffffffffffffffffffffffffffffffffffff16021790555050610111565b600081519050610087816100fa565b92915050565b60006020828403121561009f57600080fd5b60006100ad84828501610078565b91505092915050565b60006100c1826100da565b9050919050565b60006100d3826100b6565b9050919050565b600073ffffffffffffffffffffffffffffffffffffffff82169050919050565b610103816100c8565b811461010e57600080fd5b50565b61048c806101206000396000f3fe608060405234801561001057600080fd5b50600436106100365760003560e01c80633d0f34da1461003b578063a035b1fe1461006b575b600080fd5b6100556004803603810190610050919061023e565b610089565b6040516100629190610352565b60405180910390f35b61007361014e565b6040516100809190610352565b60405180910390f35b6000610093610154565b60008054906101000a900473ffffffffffffffffffffffffffffffffffffffff1673ffffffffffffffffffffffffffffffffffffffff166365555bcc85856040518363ffffffff1660e01b81526004016100ee92919061031b565b60606040518083038186803b15801561010657600080fd5b505afa15801561011a573d6000803e3d6000fd5b505050506040513d601f19601f8201168201806040525081019061013e91906102aa565b9050806000015191505092915050565b60015481565b60405180606001604052806000815260200160008152602001600081525090565b600082601f83011261018657600080fd5b81356101996101948261039a565b61036d565b915080825260208301602083018583830111156101b557600080fd5b6101c08382846103ec565b50505092915050565b6000606082840312156101db57600080fd5b6101e5606061036d565b905060006101f584828501610229565b600083015250602061020984828501610229565b602083015250604061021d84828501610229565b60408301525092915050565b6000815190506102388161043f565b92915050565b6000806040838503121561025157600080fd5b600083013567ffffffffffffffff81111561026b57600080fd5b61027785828601610175565b925050602083013567ffffffffffffffff81111561029457600080fd5b6102a085828601610175565b9150509250929050565b6000606082840312156102bc57600080fd5b60006102ca848285016101c9565b91505092915050565b60006102de826103c6565b6102e881856103d1565b93506102f88185602086016103fb565b6103018161042e565b840191505092915050565b610315816103e2565b82525050565b6000604082019050818103600083015261033581856102d3565b9050818103602083015261034981846102d3565b90509392505050565b6000602082019050610367600083018461030c565b92915050565b6000604051905081810181811067ffffffffffffffff8211171561039057600080fd5b8060405250919050565b600067ffffffffffffffff8211156103b157600080fd5b601f19601f8301169050602081019050919050565b600081519050919050565b600082825260208201905092915050565b6000819050919050565b82818337600083830152505050565b60005b838110156104195780820151818401526020810190506103fe565b83811115610428576000848401525b50505050565b6000601f19601f8301169050919050565b610448816103e2565b811461045357600080fd5b5056fea264697066735822122095da23ca5b3cd1dce13945300830ed18650b5a3cd3ebe6d162e31658f3965b8164736f6c634300060c0033",
  "source": "pragma solidity ^0.6.8;\npragma experimental ABIEncoderV2;\n\n\ninterface IStdReference {\n    /// A structure returned whenever someone requests for standard reference data.\n    struct ReferenceData {\n        uint256 rate; // base/quote exchange rate, multiplied by 1e18.\n        uint256 lastUpdatedBase; // UNIX epoch of the last time when base price gets updated.\n        uint256 lastUpdatedQuote; // UNIX epoch of the last time when quote price gets updated.\n    }\n\n    /// Returns the price data for the given base/quote pair. Revert if not available.\n    function getReferenceData(string memory _base, string memory _quote)\n        external\n        view\n        returns (ReferenceData memory);\n\n    /// Similar to getReferenceData, but with multiple base/quote pairs at once.\n    function getReferenceDataBulk(string[] memory _bases, string[] memory _quotes)\n        external\n        view\n        returns (ReferenceData[] memory);\n}\n\ncontract priceOracle {\n    \n    IStdReference ref;\n    uint256 public price;\n\n    constructor(IStdReference _ref) public {\n        ref = _ref;\n    }\n\n    function getPrice(string memory token1, string memory token2) public view returns (uint256){\n        IStdReference.ReferenceData memory data = ref.getReferenceData(token1,token2);\n        return data.rate;   \n    }\n\n\n}",
  "sourcePath": "/Users/VijayL/Documents/Blockchain/MyProjects/Encode_Club_hackathon/BSC/contracts/priceOracle.sol",
  "compiler": {
    "name": "solc",
    "version": "0.6.12+commit.27d51765.Emscripten.clang"
  },
  "schemaVersion": "3.0.23",
  "updatedAt": "2021-01-29T18:06:30.259Z",
  "networkType": "ethereum",
  "devdoc": {
    "kind": "dev",
    "methods": {},
    "version": 1
  },
  "userdoc": {
    "kind": "user",
    "methods": {},
    "version": 1
  }
}